S01800007375727665696C6C616E63655F626F742E737265635B
S113000045C0000053C000005CC000004FC00000A9
S11300104DC000004BC0000049C0000047C00000B4
S113002045C0000043C0000041C000003FC00000C4
S11300303DC000003BC0000039C0000037C00000D4
S113004035C0000033C0000031C000002FC00000E4
S11300502DC000002BC0000029C0000027C00000F4
S113006025C0000023C0000021C000001FC0000004
S11300701DC000001BC0000019C0000017C0000014
S113008015C0000013C0000011C0000011241FBEE1
S1130090CFEFD0E1DEBFCDBF21E0A0E0B1E001C0F1
S11300A01D92A230B207E1F778D0A4C1A9CF8EB5D2
S11300B089608EBD8FB58A6A8FBD87B3806687BB22
S11300C008951F920F920FB60F9211248F939F934E
S11300D085B3836085BB87EA91E60197F1F700C099
S11300E0000081E090E090930101809300019F91D2
S11300F08F910F900FBE0F901F9018958DB18F6741
S11301008DB9709A08958FB9779BFECF8BE49DE1EA
S11301100197F1F700C000008FB1089583EC8BBB09
S11301208FEF90E09BBD8ABD99BD88BD08951BBA31
S11301308FEF90E09BBD8ABD99BD88BD089581E88D
S11301408BBB1BBC1ABC8DE790E099BD88BD08959C
S113015082E48BBB8DE790E09BBD8ABD19BC18BCC3
S1130160089581E88BBB88EC90E09BBD8ABD8DE748
S113017090E099BD88BD089582E48BBB8DE790E043
S11301809BBD8ABD88EC90E099BD88BD08951BBADB
S11301901BBC1ABC19BC18BC089587E087BB8FEF41
S11301A084BB8ABB81BB8093610088B3806E88BBAB
S11301B08FEF90E097BD86BDA1DF89B7826089BFCC
S11301C0EAE6F0E0808182608083919A70DF88B3F0
S11301D0866088BBC09881E096DF83E494DF80E08A
S11301E092DF81E090DF80E08EDFC29A89EF90E0B9
S11301F00197F1F700C00000C09A83EC99E00197E1
S1130200F1F700C0000088B3866088BBC09881E025
S11302107ADF84E478DF80E076DF81E074DF83E0F6
S113022072DF80E070DF80E06EDF80E06CDF80E012
S11302306ADFC29A89EF90E00197F1F700C00000ED
S1130240C09A83EC99E00197F1F700C0000088B3ED
S1130250866088BBC09881E056DF83E454DF80E089
S113026052DF80E050DF8AE54EDF8AE54CDF8AE525
S11302704ADF8AE548DF8AE546DFC29A89EF90E0E3
S11302800197F1F700C00000C09A83EC99E0019750
S1130290F1F700C0000088B3866088BBC09881E095
S11302A032DF82E430DFC82F80E02DDF80E02BDFF7
S11302B080E029DF80E027DF80E025DF80E023DFA6
S11302C080E021DFC29A89EF90E00197F1F700C046
S11302D00000C09A83EC99E00197F1F700C0000098
S11302E09FE32DE083E0915020408040E1F700C07F
S11302F00000C33709F06BCF88B3866088BBC09811
S113030081E001DF82E4FFDE80E0FDDE80E0FBDEF1
S1130310D82F80E0F8DEC82F80E0F5DE80E0F3DE41
S113032080E0F1DE80E0EFDE0000C29A0000C09AB7
S11303308091000190910101892B11F478940EC0F1
S1130340F8949FE32DE083E0915020408040E1F752
S113035000C00000109201011092000189EF90E0AA
S11303600197F1F700C0000089EF90E00197F1F7E1
S113037000C0000089EF90E00197F1F700C0000091
S113038089EF90E00197F1F700C00000C4FD02C0BE
S1130390C5DEB2CFC5FD02C0EFDEAECFC6FD02C0E2
S11303A0C6DEAACFCC2314F0DCDEA6CF8C2F80735C
S11303B011F4CEDEA1CFC07911F4C1DE9DCFD4FDFE
S11303C002C0ACDE99CFD6FD02C0B1DE95CFD5FD1B
S11303D002C0D2DE91CFDD2314F0C3DE8DCF8D2F8A
S11303E0807311F4B5DE88CFD07911F4A8DE84CF00
S10B03F0CEDE82CFF894FFCFAA
S9030000FC
