:1000000049C0000064C0000090C0000060C0000053
:100010005EC000005CC000005AC0000058C0000074
:1000200056C0000054C0000052C0000050C0000084
:100030004EC000004CC000004AC0000048C0000094
:1000400046C0000044C0000042C0000040C00000A4
:100050003EC000003CC000003AC0000038C00000B4
:1000600036C0000034C0000032C0000030C00000C4
:100070002EC000002CC000002AC0000028C00000D4
:1000800026C0000024C0000022C0000020C00000E4
:100090001EC0000011241FBECFEFD0E1DEBFCDBFD8
:1000A00011E0A0E0B1E0E2E7F1E000E00BBF02C048
:1000B00007900D92A030B107D9F721E0A0E0B1E0A0
:1000C00001C01D92A230B207E1F70BD050C098CF0B
:1000D000E1E8F0E080818960808384B1806684B942
:1000E00008958FE081B98FEF87B98AB9E99AE9E677
:1000F000F0E0808182608083599AEADF809100017C
:1001000090910101892B11F47894F8CFF8942FEF96
:1001100088E09DE3215080409040E1F700C000005E
:100120001092010110920001E9CF1F920F920FB6B9
:100130000F9211242F938F939F9388B1836088B976
:100140002FE78AE196E0215080409040E1F700C01F
:10015000000081E090E090930101809300019F9165
:100160008F912F910F900FBE0F901F901895F894BC
:02017000FFCFBF
:00000001FF
